:100000000C949F010C9496150C946F150C94C701D9
:100010000C94C7010C94C7010C9434170C94C701BD
:100020000C94C7010C94C7010C94C7010C94C70130
:100030000C94C7010C94C7010C94C7010C94C70120
:100040000C9425150C94C7010C94E3150C94BD1564
:100050000C94C7010C94C7010C94C7010C94C70100
:100060000C9415160C94C70100407A10F35A00A0A6
:10007000724E18090010A5D4E80000E87648170071
:1000800000E40B54020000CA9A3B000000E1F505B1
:10009000000080969800000040420F000000A086FB
:1000A00001000000102700000000E803000000002D
:1000B0006400000000000A000000000001000000D1
:1000C00000002C76D888DC674F0823DFC1DFAE59EB
:1000D000E1B1B796E5E3E453C63AE651997696E87E
:1000E000E6C28426EB898C9B62ED407C6FFCEFBC02
:1000F0009C9F40F2BAA56FA5F490055A2AF75C932D
:100100006B6CF9676DC11BFCE0E40D47FEF520E662
:10011000B500D0ED902E0300943577050080841E45
:10012000080000204E0A000000C80C333333330FA0
:10013000986E12831141EF8D2114893BE65516CF3D
:10014000FEE6DB18D1844B381BF77C1D901DA4BB49
:10015000E424203284725E228100C9F124ECA1E5FE
:100160003D276364696E6F70737578585B005B42FE
:1001700048313735305D204552524F523A20756E26
:10018000646566696E6564206572726F72005B42B9
:1001900048313735305D204552524F523A206F7406
:1001A000686572206572726F72005B424831373544
:1001B000305D204552524F523A2072656365697630
:1001C0006564204E41434B206F6E207472616E73E4
:1001D0006D6974206F662064617461005B42483110
:1001E0003735305D204552524F523A207265636573
:1001F00069766564204E41434B206F6E20747261B6
:100200006E736D6974206F662061646472657373C8
:10021000005B4248313735305D204552524F523AEB
:1002200020746F6F206C6F6E6720666F722074721F
:10023000616E736D697420627566666572005B42FB
:1002400048313735305D20446576696365206973D0
:10025000206E6F7420636F6E6669677572656421C6
:1002600000322E332E310A00207C5F5C2F602C0A76
:100270000702200220B2871003400120002402223E
:100280001002220202200222002220020220222743
:10029000101341010101032220304020305203405D
:1002A00022140203105224022171010010101210B6
:1002B0001222101002240101032203002001010078
:1002C000322037121001213226012840322212102A
:1002D000121222432224121001222470C122240F60
:1002E0000F00000000240027002A00000000002565
:1002F0000028002B00000000002300260029000435
:1003000004040404040404020202020202030303BC
:1003100003030301020408102040800102040810B6
:100320002001020408102000000008000201000063
:1003300003040700000000000000000066171124FD
:100340001FBECFEFD8E0DEBFCDBF12E0A0E0B1E02E
:10035000E8EAF7E402C005900D92A430B107D9F79E
:1003600024E0A4E0B2E001C01D92A03BB207E1F797
:1003700011E0CFE9D1E004C02197FE010E94DF1F08
:10038000CE39D107C9F70E94F2170C94D2230C94EE
:100390000000982F2091F20281E0213208F043C042
:1003A0008091CE028111FCCF8091F10232E0309336
:1003B000CE029093CD029FEF9093CC021092CB028D
:1003C0002093CA02A1EDB2E0EAEAF2E090E029133C
:1003D00031C01092A9029091A902880F892B8093B5
:1003E000A9028091A802813049F51092A80280915B
:1003F000A9028093BB008091BC0083FDF8CF85ECFF
:100400008093BC008091CE028230E1F38091CC02D7
:100410008F3FB1F08091CC028032A1F08091CC026C
:10042000803391F084E01092D0021092F202109288
:10043000CF0208953D9131939F5FC9CF85EEE0CF04
:1004400080E0F1CF82E0EFCF83E0EDCF0895089513
:100450008091860290918702891B990B08958330C1
:1004600081F028F4813099F08230A9F00895873026
:10047000A9F08830C9F08430B1F4809180008F7D7C
:1004800003C0809180008F7780938000089584B5A9
:100490008F7784BD089584B58F7DFBCF8091B000A8
:1004A0008F778093B00008958091B0008F7DF9CF51
:1004B000CF93DF93EAE2F3E08491E6E1F3E0D491B5
:1004C000E2E0F3E0C491CC23A1F081110E942F025D
:1004D000EC2FF0E0EE0FFF1FEB50FD4FA591B49114
:1004E000EC91ED2381E090E009F480E0DF91CF9181
:1004F000089580E090E0FACF1F93CF93DF93282FE9
:1005000030E0F901E95DFC4F8491F901ED5EFC4FAB
:10051000D491F901E150FD4FC491CC23A9F0162FDD
:1005200081110E942F02EC2FF0E0EE0FFF1FE5512A
:10053000FD4FA591B4918FB7F894EC91111108C0BB
:10054000D095DE23DC938FBFDF91CF911F9108956B
:10055000DE2BF8CF10928702109286021092D00202
:100560001092F2021092CE0281E08093CD0210929E
:10057000A80261E082E10E947C0261E083E10E94C6
:100580007C02E9EBF0E080818E7F808380818D7F2B
:10059000808380E28093B80085E48093BC0086E28B
:1005A00092E0909385028093840287E292E0909398
:1005B0008302809382020895CF93DF9390E0FC0141
:1005C000ED5EFC4F249181509D4FFC018491882366
:1005D000D1F090E0880F991FFC01EF51FD4FA591DC
:1005E000B491FC01E551FD4FC591D49161110EC04C
:1005F0009FB7F8948C91E22FE0958E238C932881FD
:10060000E223E8839FBFDF91CF9108958FB7F894DD
:10061000EC91E22BEC938FBFF6CF3FB7F89480912B
:10062000780290917902A0917A02B0917B0226B56E
:10063000A89B05C02F3F19F00196A11DB11D3FBF1A
:10064000BA2FA92F982F8827BC01CD01620F711DE9
:10065000811D911D43E0660F771F881F991F4A95E2
:10066000D1F708958F929F92AF92BF92CF92DF926F
:10067000EF92FF926B017C010E940D034B015C0124
:10068000C114D104E104F104B9F00E940D0368190A
:1006900079098A099B09683E73408105910580F3B9
:1006A00021E0C21AD108E108F10888EE880E83E043
:1006B000981EA11CB11CE4CFFF90EF90DF90CF906B
:1006C000BF90AF909F908F9008952FB7F89460914E
:1006D00074027091750280917602909177022FBF1B
:1006E0000895E82FF0E0882359F0813059F0EE0F9B
:1006F000FF1FE85AFE4F84E893E0918380830895BA
:10070000E898F5CFE998F3CF0895AF92BF92CF92D2
:10071000DF92EF92FF920F931F93CF93DF936C01C1
:100720007B018B01040F151FEB015E01AE18BF08A2
:10073000C017D10759F06991D601ED91FC91019054
:10074000F081E02DC6010995892B79F7C501DF916C
:10075000CF911F910F91FF90EF90DF90CF90BF90BE
:10076000AF900895FC01538D448D252F30E0842FE8
:1007700090E0821B930B541710F0CF9608950197C9
:100780000895FC01918D828D981761F0A28DAE0FB6
:10079000BF2FB11D5D968C91928D9F5F9F73928F3D
:1007A00090E008958FEF9FEF0895FC01918D828D69
:1007B000981731F0828DE80FF11D858D90E0089536
:1007C0008FEF9FEF0895FC01918D228D892F90E08E
:1007D000805C9F4F821B91098F739927089583EF47
:1007E00092E00E94E30321E0892B09F420E0822FAC
:1007F0000895FC01A48DA80FB92FB11DA35ABF4FB6
:100800002C91848D90E001968F739927848FA6890F
:10081000B7892C93A089B1898C91837080648C9363
:10082000938D848D981306C00288F389E02D808112
:100830008F7D80830895EF92FF920F931F93CF9344
:10084000DF93EC0181E0888F9B8D8C8D98131AC00B
:10085000E889F989808185FF15C09FB7F894EE89F2
:10086000FF896083E889F98980818370806480834F
:100870009FBF81E090E0DF91CF911F910F91FF909A
:10088000EF900895F62E0B8D10E00F5F1F4F0F7342
:100890001127E02E8C8D8E110CC00FB607FCFACFFD
:1008A000E889F989808185FFF5CFCE010E94F9039F
:1008B000F1CFEB8DEC0FFD2FF11DE35AFF4FF082CE
:1008C0009FB7F8940B8FEA89FB8980818062CFCF34
:1008D000CF93DF93EC01888D8823B9F0AA89BB8977
:1008E000E889F9898C9185FD03C0808186FD0DC062
:1008F0000FB607FCF7CF8C9185FFF2CF808185FF83
:10090000EDCFCE010E94F903E9CFDF91CF91089599
:1009100080E090E0892B29F00E94EF0381110C9474
:100920000000089585ED8093BC008091BC0084FD9B
:10093000FCCF1092CE02089520915002260F33274B
:10094000331F21323105ECF42091CE02FC0190E0FE
:1009500080E0243069F082E00895A0915002219156
:10096000AC01405D5D4FA40FB52FB11D2C930196D6
:10097000861798F380915002680F6093500280E0D0
:10098000089581E008950895E0918702809186029C
:10099000E81730F4F0E0E857FD4F808190E00895CB
:1009A0008FEF9FEF089590918702809186022FEF3D
:1009B0003FEF981748F4E92FF0E0E857FD4F20810A
:1009C00030E09F5F90938702C9010895CF92DF9234
:1009D000EF92FF920F931F93CF93DF937C01CB0194
:1009E0008A012091CF02222389F0EB016B01C40E12
:1009F000D51ECC15DD0569F06991D701ED91FC910B
:100A00000190F081E02DC7010995F3CF642F0E947A
:100A10009C04C801DF91CF911F910F91FF90EF903F
:100A2000DF90CF900895CF93DF931F92CDB7DEB7BD
:100A300069832091CF022223F9F02091F202203223
:100A400058F021E030E0FC013383228390E080E025
:100A50000F90DF91CF9108958091D002E82FF0E0C0
:100A6000EF52FD4F998190838F5F8093D0028093E6
:100A7000F20281E090E0ECCF61E0CE0101960E94AD
:100A80009C04F7CF90E080E00895CF92DF92EF9240
:100A9000FF920F931F93CF93DF93D0E0C0E0062F18
:100AA00010E0E82EF12CC017D1072CF5D12CC12C69
:100AB000CE14DF04C4F461E087E00E947C0264E1AC
:100AC00070E080E090E00E94320360E087E00E94E6
:100AD0007C0264E670E080E090E00E9432038FEFD9
:100AE000C81AD80AE5CF64E670E080E090E00E9482
:100AF00032032196D8CFDF91CF911F910F91FF90B4
:100B0000EF90DF90CF900895FC018381877088601B
:100B1000838384818F71806284836783CF0108958A
:100B2000E0911F02F0912002309721F00280F381C2
:100B3000E02D099408950F931F930E94650300917F
:100B40002102109122022091230230912402601B85
:100B5000710B820B930B1F910F9108959C01809153
:100B60001F029091200282179307F1F090912902C1
:100B70009F71909329023093200220931F02E091ED
:100B80001F02F0912002309721F00190F081E02DBA
:100B900009950E946503609321027093220280935D
:100BA000230290932402089580912902805E80930D
:100BB0002902E5CF0F931F930E949B0520912A02E3
:100BC0002077203779F000E117E220E030E00617C7
:100BD00017072807390758F483E591E01F910F9113
:100BE0000C94AE0500E61AEE20E030E0F0CF1F9145
:100BF0000F91089580912A028F70863020F085E150
:100C000091E00C94AE050895809129028460809350
:100C1000290280912A02807880932A02E0912E0294
:100C2000F0912F02309709F00994089581E191E045
:100C30000C94AE05089580917E028F3F21F08DE0E7
:100C400091E00C94AE050E949B05613D77408105C3
:100C5000910550F080912902803618F489E091E0E6
:100C6000F0CF85E091E0EDCF08950E949B05613DB6
:100C700077408105910520F48091290281FF17C0FA
:100C800080917F028F3F49F0809129028E7F80936F
:100C9000290289E091E00C94AE058091290280360A
:100CA00018F485E191E0F7CF85E091E0F4CF089565
:100CB000CF93C82F83EF92E00E94680480917A005E
:100CC0008F7780937A0020916000CF3F09F439C07C
:100CD00034E0C39FC00111248072C770C860C82B64
:100CE00088E10FB6F894A895809360000FBEC0937A
:100CF00060008091600080658093600083B7817F91
:100D0000846083BFF89483B7816083BF85B78066B2
:100D100085BF8F7D85BF7894889583B78E7F83BF8D
:100D2000F894A8958091600088618093600020937A
:100D30006000789480917A00806880937A00CF91E7
:100D400008950FB6F894A89580916000886180930B
:100D50006000109260000FBED1CF8F929F92AF9231
:100D6000BF92CF92DF92EF92FF92CF93DF936B010E
:100D70007C012FE0C20ED11CE11CF11CC1E0D0E0CF
:100D800080914E018F3FF9F480E1C816D104E1044F
:100D9000F104C8F089E094E0980F4E0102C0880C7D
:100DA000991C9A95E2F7B12CA12CC814D904EA0435
:100DB000FB0438F00E945806C818D908EA08FB0856
:100DC000DFCF8150E8CFDF91CF91FF90EF90DF90A0
:100DD000CF90BF90AF909F908F90089583B78E7FF4
:100DE00083BF80914F01823010F40E947103809183
:100DF0004E018F3F21F480914F0180934E01089561
:100E000083B78E7F83BF80915001823010F40E949F
:100E1000710380914E018F3F21F4809150018093A6
:100E20004E01089542E050E066E871E083EF92E001
:100E30000C9485030F931F93CF93DF938C01D0E025
:100E4000C0E0F801EC0FFD1F6491662341F083EFD1
:100E500092E00E941B04892B11F02196F2CF0E9490
:100E600012078C0F9D1FDF91CF911F910F91089555
:100E7000CF93DF93FC0101900020E9F73197AF0198
:100E8000481B590BBC0183EF92E00E948503EC01E3
:100E90000E9412078C0F9D1FDF91CF9108959091B2
:100EA000CE029111FCCF262F91E09093CE02909329
:100EB000CD023FEF3093CC021092CB02360F30932D
:100EC000CA029093A9029091A902880F892B80935E
:100ED000A9028091A802813019F51092A802809190
:100EE000A9028093BB008091BC0083FDF8CF85EC04
:100EF0008093BC008091CE028130E1F38091CB02DF
:100F0000861710F42091CB02AAEAB2E0E8E8F2E0FA
:100F100080E0821307C010928702809386020895B2
:100F200085EEE6CF9D9191938F5FF3CFCF9391E0C4
:100F30009093CF0290E49093F1021092D00210921D
:100F4000F202682F80E993E00E94130581E00E947D
:100F5000C90164E670E080E090E00E94320363E043
:100F600070E080E490E00E944F07809186029091AB
:100F70008702891B990B039781F480E993E00E9413
:100F8000D304C82F80E993E00E94D3048C7F992773
:100F900020E0822B9C2BCF91089584E690E0FBCF3C
:100FA000CF92DF92EF92FF92CF93DF938091620412
:100FB00091E09093CF028093F1021092D0021092B0
:100FC000F2026091680480E993E00E94130581E0D9
:100FD0000E94C90180916804909169048032910552
:100FE000A8F08232910530F1839781F480916304F7
:100FF00020E1829FC001112465E470E00E94B71FC8
:10100000072E000C880B990B0E943203809162041A
:1010100062E070E090E00E944F07823079F060E07B
:1010200070E080E89FEBDF91CF91FF90EF90DF9031
:10103000CF9008958091630428E7DBCF80E993E0A7
:101040000E94D304D82F80E0C82F80E993E00E944B
:10105000D3048C2B9D2BBC0190E080E00E940A1DE4
:101060006B017C0120E030E040E85FEB0E94051D51
:101070008823A9F2609163046534A9F070E090E0E0
:1010800080E00E940A1D9B01AC0160E070E08AE8EC
:1010900092E40E940A1F9B01AC01C701B6010E94A5
:1010A0006B1D6B017C018091680490916904813211
:1010B000910511F0419751F420E030E040E05FE30A
:1010C000C701B6010E946B1D6B017C012091640475
:1010D000309165044091660450916704C701B601E0
:1010E0000E940A1FA0CF90E59CBD1DBC2A98E0E19C
:1010F000F0E03197F1F78EBD00000DB407FEFDCF93
:101100008EB5FB019FEF4150C8F0222361F09EBDD8
:1011100000000DB407FEFDCF8EB56115710599F382
:1011200080833196F0CFDF01119680818EBD000063
:101130000DB407FEFDCF8EB5FD01E5CF2A9AE0E1A3
:10114000F0E03197F1F70895CF93DF931F92CDB779
:10115000DEB7698320E041E0BE016F5F7F4F0E94F0
:1011600073080F90DF91CF91089529986EE080E287
:101170000E94A40884E293E20197F1F70895299868
:101180006CE080E20C94A40880912A02982F90775A
:10119000903759F0982F92959F709F5F9770929516
:1011A000907F8F78892B80932A02809129028B7FF0
:1011B0008F7E809329020C94BF086FE080E20E942A
:1011C000A408609157016F3F19F08AE20E94A408B9
:1011D000299A089521E041E070E060E00C947308E2
:1011E00020E040E070E060E00C947308EF92FF9222
:1011F0000F931F93CF93DF93182F7B0180917E0273
:10120000FB0180834381C0E242FD05C046954695BF
:101210004695C7E0C40FD09181020D2F0170299827
:1012200080E091E00197F1F76EE080E20E94A4086F
:1012300084EC90E00197F1F7612F8AE20E94A40804
:10124000612F80E30E94A40881EE0E94F0081F3FF6
:1012500011F080EA011180EB4C2FC13208F040E21E
:1012600020E0B7010E947308299AF12CE12C8FEF3E
:101270000E94F008C82F807321F4F1E0EF1AF10802
:10128000B1F7299860E387E20E94A408C4FF03C075
:1012900081EE0E94F0080E94DD08C5FDD1E081E0EA
:1012A0001F3F09F080E0D1708D2BDF91CF911F910E
:1012B0000F91FF90EF9008950F931F93CF938C01A0
:1012C000FC0182819091290290FF04C08F3F51F56B
:1012D000CFEF04C0811116C0C0917F02B8018C2FDE
:1012E0000E94F60890917F029C1313C090912A02ED
:1012F000811113C021E0290F2F70907F922B9093C2
:101300002A0207C08F3F21F3B8010E94F608882304
:1013100019F3CF911F910F910895907F90932A0216
:1013200081E0F7CF80E0F5CF2091290222FD0C94D7
:101330005C0980E00895FC0180917E0281839481A4
:10134000907F9160948380917D0280FF03C0CF01E4
:101350000C94940980E008950F931F93CF93DF932B
:10136000EC0188819981009759F02A813B812617E9
:10137000370730F081E0DF91CF911F910F910895F1
:101380008B016F5F7F4F0E94E51F009759F0998393
:1013900088831B830A832C813D81232B59F7FC0111
:1013A0001082E8CF80E0E7CFCF93DF93EC01888114
:1013B0009981009711F00E94A519198218821D8247
:1013C0001C821B821A82DF91CF910895EF92FF92C7
:1013D0000F931F93CF93DF93EC01198218821B8226
:1013E0001A821D821C828617970719F1FB01008162
:1013F000118101151105E9F0E480F580B7010E9423
:10140000AC09811109C0CE01DF91CF911F910F91DD
:10141000FF90EF900C94D409FD82EC82B801888192
:101420009981DF91CF911F910F91FF90EF900C94D4
:10143000B420DF91CF911F910F91FF90EF9008950D
:10144000CF92DF92EF92FF920F931F93CF93DF9390
:10145000CDB7DEB762970FB6F894DEBF0FBECDBF33
:101460008C01CB01F8011182108213821282158245
:1014700014824AE09E012F5F3F4F6901B9010E942B
:10148000731AF60101900020E9F731977F01EC18FB
:10149000FD08B701C8010E94AC09811112C0C80142
:1014A0000E94D40962960FB6F894DEBF0FBECDBF7E
:1014B000DF91CF911F910F91FF90EF90DF90CF9030
:1014C0000895F801F582E482B601808191810E943D
:1014D000B420E8CF0F931F93CF93DF93EC010C81DF
:1014E0001D810F5F1F4FB8010E94AC09882391F046
:1014F000288139818C819D8169E871E0820F931F79
:101500000E94B4201D830C83CE01DF91CF911F91E7
:101510000F910895CE010E94D409F6CFEF92FF9269
:101520000F931F93CF93DF93EC01FB01E080F180D9
:10153000E114F10411F10481158101151105A9F0DF
:101540008C819D81080F191FB801CE010E94AC0942
:10155000882399F0288139818C819D81B701820F80
:10156000931F0E94B4201D830C83CE01DF91CF9185
:101570001F910F91FF90EF900895CE010E94D40922
:10158000F4CFFC01808191810C94A519CF93C82FD1
:1015900080937E028F3F51F08093570163E082E297
:1015A0000E94A40861E081E20E94A4080E94DD0874
:1015B0006C2F90E080E00E94541E81E0CF9108954E
:1015C000CF93219A229A29982A9ACFB7F89480919A
:1015D0000402811127C0E9E0F3E08491EDE1F3E03A
:1015E0009491E82FF0E0EE0FFF1FEF51FD4FA59112
:1015F000B491EC91E92321F461E08AE00E947C023D
:1016000061E08AE00E94DC028CB580618CBD8CB503
:1016100080648CBD61E08DE00E94DC0261E08BE0C3
:101620000E94DC02809104028F5F80930402CFBF8E
:101630000E94B50863E083E20E94A4086FE584E29B
:101640000E94A4086CE485E20E94A40863E286E29A
:101650000E94A40864E08DE30E94A4088DE10E942A
:10166000EA08843041F063E780E50E94A40864E062
:101670008DE30E94A40886E00E94EA08833209F004
:101680004DC085E00E94EA088C3409F047C062E052
:1016900082E20E94A40860E081E20E94A40863E064
:1016A0008CE30E94A408CFEFC093000120E045E046
:1016B00060E071E08BE20E94730820E045E060E0AA
:1016C00071E08AE20E94730820E045E060E071E08A
:1016D00080E30E94730882EE0E94F00881EE0E946F
:1016E000F00860E787E20E94A408809129028061E7
:1016F00080932902809181028E7F80938102809164
:101700007E028F3F19F485E191E00AC09FEF980FA8
:101710009E3F48F40E94C60A8111F5CF85E091E012
:10172000CF910C94AE05C0937E02F8CFE9E2F2E0CF
:101730008081877F8F7E80831092250210922602FF
:10174000109227021092280244E050E070E060E01E
:101750008EE792E00C942C1ECF9383E08093490196
:1017600060E00E94DC0261E088E00E94DC0261E04F
:1017700087E00E94DC020E94AA020E94AA0281E085
:101780008093CF0280E48093F1021092D0021092F5
:10179000F2026CEF80E993E00E94130569EC80E9A6
:1017A00093E00E94130581E00E94C90161E070E0AE
:1017B00080E490E00E944F0780E993E00E94D30408
:1017C000853129F48BE891E00E9438070AC0823302
:1017D00079F188E991E00E9438071092480110924F
:1017E00047018091620491E09093CF028093F102CF
:1017F0001092D0021092F2026091680480E993E0A6
:101800000E94130581E00E94C901C82F6AE070E0C0
:1018100080E090E00E943203C230D9F160F4CC2322
:10182000A9F081E192E0C13071F08EE691E00BC049
:101830008CEA91E0C9CF8AEA91E0C33021F08EE8CA
:1018400091E0C43091F70E941A0706C083E290E04D
:1018500090936904809368048EE991E00E943C1E95
:1018600090E090930602809305028FE991E00E9438
:101870003C1E90E090931C0280931B0283EA91E04F
:101880000E943C1E90E090931E0280931D02CF9117
:1018900008958CED91E0D7CF0F931F93CF93DF93F3
:1018A000EC01E0E06115710551F0FB0101900020B1
:1018B000E9F73197E61BF70BE931F10500F50E2F3B
:1018C00010E08B818770980193E0220F331F9A9567
:1018D000E1F7822B8B838C818F718C83EE2329F02F
:1018E000A801CE0107960E94BB20FE01E00FF11F68
:1018F0001782CE01DF91CF911F910F910895E9E1F9
:10190000DECF90917E0290936B0410926C048093D2
:10191000700460936F0490916E04907E90936E04B7
:101920008F3F11F449EB51E0BA018AE694E00E943E
:101930004C0C0C94940980917E028F3F21F50E94FB
:1019400065036F3FE9F0609319018091190190914F
:101950007E0290936B0410926C048093700483E079
:1019600080936F0480916E04807E836080936E0408
:1019700068E871E08AE694E00E944C0C0C945C09E3
:1019800010921901E2CF0895E9E2F2E08081897FA7
:1019900081608083AEE7B2E08FEF12968C9312974E
:1019A00011968C931197EAE6F4E09C9191838283DF
:1019B000868387E085838481807E8360848368E872
:1019C00071E0CF010E944C0C0C945C09EF92FF92E5
:1019D0000F931F93CF93DF93CDB7DEB76E970FB6FC
:1019E000F894DEBF0FBECDBFFC012581283109F080
:1019F000A1C02681273109F09DC08C01095F1F4FCE
:101A0000F80101900020E9F7CF01801B910B0E94A3
:101A10000919F82EE92EB8010E94B4208DE192E058
:101A20009F938F938BE192E09F938F9385E092E059
:101A30009F938F938FEB91E09F938F93EF92FF9201
:101A40000E94CA2060910502709106020FB6F894B8
:101A5000DEBF0FBECDBF62307105E4F480911D0280
:101A600090911E020297B4F480911B0290911C0287
:101A7000892B81F08EE991E00E94541E60911B0237
:101A80008FE991E00E94541E60911D0283EA91E06B
:101A90000E94541E60911D0270911E02CE01439659
:101AA0000E94200A60911B0270911C02CE010D96CB
:101AB0000E94200A6091050270910602CE010196F3
:101AC0000E94200ABE016F5F7F4FCE0107960E94E1
:101AD000E609CE0107960E946A0ABE01635F7F4F46
:101AE0000E948E0A0E946A0ABE016D5E7F4F0E94AC
:101AF0008E0ABC01CE0149960E94E609CE010796E6
:101B00000E94C10ACE0101960E94C10ACE010D9623
:101B10000E94C10ACE0143960E94C10A698D7A8D46
:101B20008CE993E00E944C0C0E949B09CE014996DF
:101B30000E94C10A6E960FB6F894DEBF0FBECDBFED
:101B4000DF91CF911F910F91FF90EF9008952F9209
:101B50003F924F925F926F927F928F929F92AF923D
:101B6000BF92CF92DF92EF92FF920F931F93CF938A
:101B7000DF9300D0CDB7DEB78091290284FB222409
:101B800020F884FF00C206E0E9E13E2EF5E18F2E49
:101B9000A0E0CA2EA0E0DA2EB3EAFB2E44244A9439
:101BA0005524539413E0612E12E0712E86E1982E95
:101BB0009FE1E92EA12CBB24BA9487E10E94EA0898
:101BC00080FDE1C1015009F4DEC121E041E070E097
:101BD00060E080E60E9473088983813220F082EE03
:101BE0000E94F008198221E049816BE874E081E6E7
:101BF0000E94730860E487E20E94A40860918E044A
:101C0000862F8695869586958A3108F089E197E03A
:101C1000980F62FD90E229819213CFCF962F937097
:101C2000923059F640918F04942F97709983E091E8
:101C30009004EA8310918C0490918B0450918D0450
:101C400030912A02306830932A0230917E02531379
:101C500064C190E067709C0173E0220F331F7A9596
:101C6000E1F7262B20938E0485579B4FFC011782AA
:101C700043FF15C081E2EBE8F4E0AAE6B4E001908E
:101C80000D928A95E1F7477F406140936E0450932F
:101C90006B0410936C048AE694E00E94940990917E
:101CA0008F0494FD32C1F981F33009F02EC1809187
:101CB000900421EF280F233008F47FCF2A812430AD
:101CC000B1F48091910490911901891719F08F3F17
:101CD00009F073CF0E943E179FEF980F9E3F18F4B4
:101CE0000E94C60A6ACF8FEF80937E0266CFEA8198
:101CF000E830D9F4F0912902F983F0FF5ECF0E9419
:101D00003E178F3F09F459CF8F5F8F3F09F455CFAE
:101D100090918002891708F050CF298121FD4DCF85
:101D20008093800210937F0248CFEA81E831B9F4B2
:101D300080917E0280936B0410936C04FFEFF0930C
:101D4000700430926F0480916E04807E8360809373
:101D50006E0461E08AE694E00E9484052FC02A8127
:101D6000293161F48091290283FF27CF877F8093F7
:101D700029020E943E1780932B021FCFEA81EE3189
:101D800009F41BCFED31E9F480917E0280936B045E
:101D900010926C04FFEFF0937004E0926F0483E400
:101DA00080936E0480916D048770806180936D04D0
:101DB000B0927204A09271048AE694E00E945C09D9
:101DC000FCCE20918C042111A5C08D3059F488E1FE
:101DD00098E00FB6F894A895809360000FBE90939A
:101DE0006000FFCF8B3169F40E943E1791E08111B2
:101DF00001C090E080917D0290FB80F980937D028C
:101E0000DCCE8630A1F490919204822D992321F0AA
:101E100081E09D3409F080E080937C0241E050E055
:101E200063E071E08CE792E00E94441EC6CE8331ED
:101E300019F40E940313C1CE823111F50E949B0553
:101E400020917E0220936B0410926C042FEF20935C
:101E5000700490926F04F0926E0420916D042770CC
:101E6000206220936D0460937104709372048093D8
:101E70007304909374048AE694E00E9494099DCEC2
:101E80008230E1F490917E0290936B0410926C0486
:101E90009FEF9093700480936F04F0926E04809192
:101EA0006D048770806280936D044092710450923B
:101EB00072046092730470927404DDCF8130F9F47F
:101EC000C114D10409F479CE929596959770953006
:101ED00059F46091920470919304809194049091CC
:101EE00095040E94000069CE911105C082E994E03A
:101EF0000E944C1AF6CF60E070E0CB01F2CF8A303E
:101F000009F45BCE8C3109F458CE8BE894E00E9442
:101F1000E60C53CE8A31C9F750CE5F3F09F04DCE63
:101F2000E981E33059F58091290282FF04C0FA81EA
:101F3000F73009F442CE2A81243109F03ECE809157
:101F40007F0298133ACE0E94650373708827992701
:101F50000E94320380917E0280936B0410936C0484
:101F60008FEF8093700480926F0480916E04807E66
:101F7000836080936E0460917F02ECCE80917F023B
:101F800098131BCEC2CF0F900F90DF91CF911F916E
:101F90000F91FF90EF90DF90CF90BF90AF909F9008
:101FA0008F907F906F905F904F903F902F9008950B
:101FB000CF92DF92EF92FF92CF93DF93D82F0E94C0
:101FC00065036B017C0110929004C0E00E946503E0
:101FD0006C197D098E099F09603D77408105910547
:101FE00090F4C11110C0A8950E9490050E94A70D01
:101FF00080918F048770833049F7C1E0809190040D
:102000008D13E3CFE3CF8C2FDF91CF91FF90EF9033
:10201000DF90CF9008958F929F92AF92BF92CF9210
:10202000DF92EF92FF924B015C010E9465036B010E
:102030007C010E9465036C197D098E099F09681552
:1020400079058A059B0530F4A8950E9490050E94A9
:10205000A70DEFCFFF90EF90DF90CF90BF90AF90A4
:102060009F908F9008958F929F92AF92BF92CF9240
:10207000DF92EF92FF920F931F93CF93DF930E9413
:1020800058029C018130910509F0F2C08091510104
:1020900090915201019709F4D3C0309352012093DB
:1020A0005101909145049F719064909345049091E3
:1020B00044049770906190934404309349042093B2
:1020C000480481E494E00E949B0980916804909107
:1020D0006904892B09F0C6C08EE392E00E941A07BA
:1020E0006AE070E080E090E00E940B10809168044C
:1020F00090916904892B09F0B8C08EE392E00E94A8
:102100001A0760E070E080E090EC209124042F71C9
:1021100020682093240420912304277020622093B8
:1021200023040E947C1F60932704709328048093EB
:10213000290490932A0480E294E00E949B098091F4
:10214000470190914801019709F070C085EF0E9406
:102150009607BC0190E080E00E940A1D20E030E07C
:102160004AEF52E40E946B1D20E030E040E857E364
:102170000E946B1D20E030E040EC50E40E949D1E68
:102180006B017C0101E112E021E040E00E94EB18CC
:102190006DE371E0C8010E94AB20892B79F0B80192
:1021A0008EED93E00E944C0C0E949B090DE311E020
:1021B00021E040E0C701B6010E94EB1883EF0E94C6
:1021C0009607BC0190E080E00E940A1D22E538EBF2
:1021D0004FE253E40E946B1D20E030E040E857E3FB
:1021E0000E946B1D26E636E64BE352E40E949D1EDC
:1021F0006B017C0107E012E021E040E00E94EB1857
:1022000063E371E0C8010E94AB20892B79F0B8012B
:102210008FEF93E00E944C0C0E949B0903E311E0B6
:1022200021E040E0C701B6010E94EB1880911D0239
:1022300090911E02019721F462E081E00E94450521
:102240008091290282FD33C1DF91CF911F910F91BF
:10225000FF90EF90DF90CF90BF90AF909F908F90C6
:102260000C9465030E94D0073BCF0E94D0074DCF4E
:10227000892B31F78091510190915201019701F71B
:1022800020911B0230911C0288EE93E0289F600190
:10229000299FD00C389FD00C11240D2C000CEE0877
:1022A000FF088091290282FD2DC00E9465034B0129
:1022B0005C0180E090E0DC012091290222FD19C040
:1022C0008C159D05AE05BF05A0F5803127E292076C
:1022D000A105B10598F4A8950E9490050E94A70D4C
:1022E0000E946503DC01CB0188199909AA09BB0981
:1022F000E3CF8C159D05AE05BF05D8F4C81AD90AE1
:10230000EA0AFB0A0E94BF08C114D104E104F104E7
:1023100009F4C6C0C701B6010E94AD0680914E0106
:102320008F3F11F080914E018FEF80934E010E94FC
:10233000B5080E945802EC01892B09F081CF8091E9
:1023400045048F71806480934504809144048770B4
:10235000806180934404109249041092480481E4FF
:1023600094E00E949B098091490120E4829FC00172
:102370001124826080937C0080917A008064809335
:102380007A0080917A0086FDFCCF80917800609180
:102390007900762F682F072E000C880B990B0E946E
:1023A0000C1D29E037E64CE55BE30E946B1D6B01D9
:1023B0007C0126EF38E24CE550E40E94B21F18166B
:1023C0000CF472C026E636E646EE5FE3C701B601BE
:1023D0000E94051D87FD17C026E636E646EE5FE340
:1023E000C701B6010E949D1E26E83BEE41ED5FE36A
:1023F0000E940A1F20E030E048EC52E40E946B1D6E
:102400000E947C1FEB0120914A0130914B014091C9
:102410004C0150914D01C701B6010E94051D882352
:10242000D1F180917E0280936B0410926C048FEF47
:102430008093700410926F0480916E04807E83609C
:1024400080936E046C2F8AE694E00E9484050E94BB
:1024500094098091C003877088628093C003809143
:10246000C103806E8093C103C092C403D092C503A0
:10247000E092C603F092C70382E08093C8038DEB1D
:1024800093E00E949B09C0924A01D0924B01E092D6
:102490004C01F0924D011092520110925101D0CE98
:1024A0008FEF0E9458063ACFC4E6D0E0ACCF0E942E
:1024B000BF08F89481E0809350018FEF80934F0123
:1024C00082E08CBB80E097E090935B0180935A019F
:1024D00080916900837F846080936900E99A8FEF1F
:1024E0000E94580681E00E94710380914E018F3F47
:1024F00011F080914E018FEF80934E01DF91CF91CB
:102500001F910F91FF90EF90DF90CF90BF90AF9011
:102510009F908F900C94B508CF9380917E0280930A
:102520006B0410926C04CFEFC09370048BE0809327
:102530006F0480916E04807E836080936E046EE1F0
:1025400071E08AE694E00E944C0C0E94940980910C
:102550007E0280936B0410926C04C09370048CE034
:1025600080936F0480916E04807E836080936E04FC
:102570006AE171E08AE694E00E944C0C0E949409A2
:1025800048EC51E061E087E00E94810C62E370E07A
:1025900080E090E00E940B1046ED51E060E182E0A7
:1025A0000E94810C8091470190914801019791F41C
:1025B0004AED51E067E084E00E94810C62E370E044
:1025C00080E090E00E940B1043EE51E066E083E073
:1025D0000E94810C62E370E080E090E00E940B10AA
:1025E0004FEE51E06EE18EEF0E94810C62E370E0ED
:1025F00080E090E00E940B1043EF51E068E187E13A
:10260000CF910C94810CFF920F931F93CF93DF9384
:10261000CAE6D4E00EE712E0F801808189831A82CD
:10262000FF24FA94FE828FE08D838C81807E83600C
:102630008C8368E871E0CE010E944C0C8B8187701E
:1026400080618B838C818F71806C8C8381E08F8320
:102650001886CE010E9494098FE00E94D80F48E8A6
:1026600051E061E18FEF0E94810CF8018081898344
:102670001A82FE8286E08D838C81807E83608C83CB
:102680006181CE010E9484050E94940986E00E9427
:10269000D80FDF91CF911F910F91FF900C948C1266
:1026A0001F93CF93DF9380917D0281FD2DC00E9407
:1026B000031380917D02816080937D02C4E0DFEF8F
:1026C0001AE180917E0280936B0410926C04D09387
:1026D000700410936F0480916E04807E83608093F9
:1026E0006E0462E08AE694E00E9484050E949409E8
:1026F0008BE10E94D80F811102C0C15011F7809167
:102700007D02826080937D02DF91CF911F910895B9
:10271000CF92DF92EF92FF920F931F93CF93DF93AD
:10272000CDB7DEB76E970FB6F894DEBF0FBECDBF44
:102730000E94650300912502109126022091270234
:1027400030912802601B710B820B930B6031774232
:102750008105910530F18091290283FB112710F941
:1027600083FD6EC190917E0291112BC110922B02BC
:1027700080912902877F8093290210912B021F3FAD
:1027800009F45EC10E9465036093250270932602DE
:1027900080932702909328028091800281131093E6
:1027A00080028091290282FF04C061E082E00E94E1
:1027B000450580917E0280936B0410926C0487E142
:1027C0008093700488E180936F0480916E04807E12
:1027D000826080936E0468E871E08AE694E00E946B
:1027E0004C0C0E94940968EE73E080E090E00E9437
:1027F0000B10809105029091060202976CF4809173
:102800001D0290911E0202973CF480911B02909150
:102810001C02892B09F05CC010920602109205027E
:102820008AE090E090931C0280931B0210921E029B
:1028300010921D0270E060E0CE0143960E94200AD3
:1028400060911B0270911C02CE010D960E94200A1D
:102850006091050270910602CE0101960E94200A45
:10286000BE016F5F7F4FCE0107960E94E609CE0141
:1028700007960E946A0ABE01635F7F4F0E948E0A1C
:102880000E946A0ABE016D5E7F4F0E948E0ABC01E3
:10289000CE0149960E94E609CE0107960E94C10A20
:1028A000CE0101960E94C10ACE010D960E94C10A76
:1028B000CE0143960E94C10A698D7A8D8CE993E01E
:1028C0000E944C0C0E949B09CE0149960E94C10AAD
:1028D0008091050290910602019709F063C010E013
:1028E00000E06FEFC8010E94541E0F5F1F4F0D39AB
:1028F000F1E01F07B1F710920602109205026091F5
:102900001D0270911E02CE0143960E94200A609122
:102910001B0270911C02CE010D960E94200A60914C
:10292000050270910602CE0101960E94200ABE01A6
:102930006F5F7F4FCE0107960E94E609CE01079692
:102940000E946A0ABE01635F7F4F0E948E0A0E9446
:102950006A0ABE016D5E7F4F0E948E0ABC01CE01E5
:1029600049960E94E609CE0107960E94C10ACE014F
:1029700001960E94C10ACE010D960E94C10ACE01A5
:1029800043960E94C10A698D7A8D8CE993E00E947A
:102990004C0C0E949B09F0E0E0E00995CE014996BD
:1029A0000E94C10A6E960FB6F894DEBF0FBECDBF6F
:1029B000DF91CF911F910F91FF90EF90DF90CF901B
:1029C00008958860809329028FEF80932B02909363
:1029D0006B0410926C048093700488E180936F0400
:1029E00080916E04807E836080936E0461E08AE64D
:1029F00094E00E9484050E945C090E9465036B01BB
:102A00007C01109290040E9465036C197D098E0967
:102A10009F09603D77408105910508F0A9CE11110D
:102A2000A7CE0E94A70DA89580918F048770833050
:102A300051F711E080919004893129F310E0E3CF40
:102A400062E084E00E944505ACCE1F920F920FB663
:102A50000F9211242F933F938F939F93AF93BF9324
:102A60008091740290917502A0917602B0917702E4
:102A70003091730226E0230F2D3758F50296A11DE1
:102A8000B11D209373028093740290937502A093FA
:102A90007602B09377028091780290917902A091AA
:102AA0007A02B0917B020196A11DB11D809378023C
:102AB00090937902A0937A02B0937B02BF91AF9179
:102AC0009F918F913F912F910F900FBE0F901F906C
:102AD000189529E8230F0396A11DB11DD2CF1F928F
:102AE0000F920FB60F9211242F933F934F935F9342
:102AF0006F937F938F939F93AF93BF93EF93FF93C6
:102B0000E0915A01F0915B010995FF91EF91BF911E
:102B1000AF919F918F917F916F915F914F913F9175
:102B20002F910F900FBE0F901F9018951F920F922C
:102B30000FB60F9211242F933F934F935F936F9390
:102B40007F938F939F93AF93BF93EF93FF93E09106
:102B50005801F09159010995FF91EF91BF91AF9103
:102B60009F918F917F916F915F914F913F912F91A5
:102B70000F900FBE0F901F9018951F920F920FB6D7
:102B80000F9211242F933F934F935F936F937F93F3
:102B90008F939F93AF93BF93EF93FF9383EF92E055
:102BA0000E94F903FF91EF91BF91AF919F918F9197
:102BB0007F916F915F914F913F912F910F900FBE39
:102BC0000F901F9018951F920F920FB60F9211241D
:102BD0002F938F939F93EF93FF93E0910303F091D3
:102BE00004038081E0910903F0910A0382FD1BC078
:102BF000908180910C038F5F8F7320910D0382175A
:102C000041F0E0910C03F0E0ED50FD4F958F809383
:102C10000C03FF91EF919F918F912F910F900FBE19
:102C20000F901F9018958081F4CF1F920F920FB6CE
:102C30000F9211242F933F934F935F936F937F9342
:102C40008F939F93AF93BF93EF93FF938091B900BE
:102C5000887F803609F44AC0F0F5883209F4A7C0AD
:102C600018F5803109F49BC0B8F4882309F4F9C041
:102C7000883009F494C0FF91EF91BF91AF919F917B
:102C80008F917F916F915F914F913F912F910F9015
:102C90000FBE0F901F901895883109F488C08032BC
:102CA00051F78093CC0214C0803409F49DC040F4E5
:102CB0008033B9F38833F9F68093CC0285ECB0C049
:102CC000803509F485C0883509F496C0883499F6B2
:102CD0000E949204D0CF883909F48CC038F5883727
:102CE00029F050F4883611F0803729F683E080937C
:102CF000CE021092720257C0883809F47BC0803926
:102D000019F0803809F0B7CF80917202803208F054
:102D100071C0E091720281E08E0F80937202809107
:102D2000BB00F0E0EE5AFD4F80833DC0803B39F0A0
:102D3000E0F4803A09F479C0883A09F09CCF84E045
:102D40008093CE021092510210925002E0918402C0
:102D5000F091850209958091500281110FC081E0A8
:102D6000809350021092300209C0803C09F4A6CF33
:102D7000883C09F4A3CF883B09F07DCFE091510254
:102D800081E08E0F80935102F0E0E05DFD4F808185
:102D90008093BB00909151028091500229C0809194
:102DA000A9028093BB0085EC8093BC0064CF909116
:102DB000CB028091CA02981758F5E091CB0281E0CE
:102DC0008E0F8093CB02F0E0E655FD4F8081E9CF76
:102DD000E091CB0281E08E0F8093CB028091BB000B
:102DE000F0E0E655FD4F80839091CB028091CA02BE
:102DF0009817C8F285E8D8CFE091CB0281E08E0F1A
:102E00008093CB028091BB00F0E0E655FD4F8083BC
:102E10008091CD0281115CCF81E08093A80284EA89
:102E20008093BC001092CE0226CF85EC8093BC002C
:102E30001092CE0280917202803230F4E0917202E0
:102E4000F0E0EE5AFD4F10826091720270E0E09166
:102E50008202F091830282E592E00995109272025B
:102E60000ACF1092CC0234CF1F920F920FB60F925E
:102E700011240F900FBE0F901F90189580918F0412
:102E8000829586958770813019F480919204089517
:102E9000811105C082E994E00E942E1A089580E015
:102EA0000895CF93DF93FC01108211821282148265
:102EB00015821682DC0117968AE1ED0119928A9536
:102EC000E9F782E08383DF91CF910895E3EFF2E0A9
:102ED0001382128288EE93E0A0E0B0E084839583B1
:102EE000A683B78326E631E03183208325EC30E0EA
:102EF0003587248724EC30E03787268720EC30E0C4
:102F0000318B208B21EC30E0338B228B22EC30E0B4
:102F1000358B248B26EC30E0378B268B118E128E6E
:102F2000138E148EE0E9F3E013821282848395837A
:102F3000A683B78388E791E0918380838BE894E050
:102F40000E9451178AE694E00E945117E2E6F4E0ED
:102F500085E481838AE999E9A9E9BFE382839383C0
:102F6000A483B5831782168283E2808381E494E090
:102F70000E945117E1E4F4E087E0868380E18583D5
:102F800080E294E00E945117E0E2F4E082E0868360
:102F900085E285838FEF93E00E945117EFEFF3E016
:102FA00083E0868315828EED93E00E945117EEED4B
:102FB000F3E084E0868381E085838DEB93E00E94DB
:102FC0005117EDEBF3E08EEF868386E285838CE983
:102FD00093E00E945117ECE9F3E087E1868388E1F2
:102FE00085830895789484B5826084BD84B58160BA
:102FF00084BD85B5826085BD85B5816085BD8091C4
:103000006E00816080936E0010928100809181003B
:103010008260809381008091810081608093810033
:10302000809180008160809380008091B1008460F5
:103030008093B1008091B00081608093B000809156
:103040007A00846080937A0080917A008260809315
:103050007A0080917A008E7F80937A0080917A0046
:10306000806880937A001092C100A89580E090E07B
:10307000892B11F00E940000E0910303F0910403FA
:1030800082E08083E091FF02F09100031082E091E2
:103090000103F091020387E6808310920B03E09115
:1030A0000703F091080386E08083E0910503F09127
:1030B0000603808180618083E0910503F09106031F
:1030C000808188608083E0910503F0910603808110
:1030D00080688083E0910503F091060380818F7DF5
:1030E0008083C0E1D0E0F12CFE01F595E795E85929
:1030F000FD4FE491C0FF61C0EF70E83008F05FC0A1
:10310000F0E0E859FD4FF4906F2D83EF92E00E94BC
:103110001B042196C23FD10539F781E692E00E9457
:103120001A0780917D028D7F80937D020E94AC0BF7
:1031300041E050E063E071E08CE792E00E942C1ED9
:103140006FEF81E090E00E94541E80912A028F78F8
:1031500080932A021092200210921F0283E591E0D0
:103160000E94AE0580E593E190932F0280932E029A
:103170000E9465030E9465030E9490050E94A70DAE
:103180008091290282FB882780F9A895882391F3F2
:103190000E948813A895C0E0D0E0A8950E949005F1
:1031A0000E94A70D0E9433102097B9F30E94EF03ED
:1031B000882399F30E940000F0CFE2959DCF1BEF8A
:1031C0001E0F00E06F2D83EF92E00E941B040F5F43
:1031D0000117C0F39ECFEF920F931F93CF93DF930E
:1031E000E80134E047FD34E1042E000C550B57FF95
:1031F00003C0519541955109E32E022F242FAE01B2
:103200000E94B51ACE01DF91CF911F910F91EF90DF
:1032100008950F931F93CF93DF938230910510F49D
:1032200082E090E0E091AE04F091AF0430E020E065
:10323000B0E0A0E0309799F42115310509F44AC0B7
:10324000281B390B24303105D8F58A819B81611503
:10325000710589F1FB0193838283FE0111C04081D6
:1032600051810281138148175907E0F04817590727
:1032700099F4109761F012960C93129713961C9381
:103280003296CF01DF91CF911F910F910895009356
:10329000AE041093AF04F4CF2115310551F042175D
:1032A000530738F0A901DB019A01BD01DF01F801E4
:1032B000C1CFEF01F9CF9093AF048093AE04CDCF8F
:1032C000FE01E20FF31F819391932250310939835C
:1032D0002883D7CF2091AC043091AD04232B41F447
:1032E00020915E0130915F013093AD042093AC04D6
:1032F00020915C0130915D012115310541F42DB71C
:103300003EB74091600150916101241B350BE09163
:10331000AC04F091AD04E217F307A0F42E1B3F0BB1
:103320002817390778F0AC014E5F5F4F2417350737
:1033300048F04E0F5F1F5093AD044093AC0481934F
:1033400091939FCFF0E0E0E09CCFCF93DF93009785
:10335000E9F0FC01329713821282A091AE04B09181
:10336000AF04ED0130E020E01097A1F4208131811D
:10337000820F931F2091AC043091AD0428173907B8
:1033800009F061C0F093AD04E093AC04DF91CF91FC
:103390000895EA01CE17DF07E8F54A815B819E01B7
:1033A00041155105B1F7E901FB83EA834991599130
:1033B000C40FD51FEC17FD0761F48081918102963F
:1033C000840F951FE90199838883828193819B8370
:1033D0008A83F0E0E0E012968D919C91139700971C
:1033E000B9F52D913C911197CD010296820F931F53
:1033F0002091AC043091AD042817390739F6309785
:1034000051F51092AF041092AE04B093AD04A093A6
:10341000AC04BCCFD383C28340815181840F951FFC
:10342000C817D90761F44E5F5F4F88819981480FB3
:10343000591F518340838A819B8193838283211505
:10344000310509F0B0CFF093AF04E093AE049ECF06
:10345000FD01DC01C0CF13821282D7CFFC01882787
:103460009927E89421912032E9F3293010F02E3089
:10347000C8F32B3241F02D3239F4689404C00E9415
:10348000931A820F911D219120532A30C0F31EF40C
:10349000909581959F4F08951F93FC019927882748
:1034A000BC01E89411911032E9F3193010F01E308C
:1034B000C8F31B3251F01D3249F4689406C00E94D3
:1034C0007E1A610F711D811D911D119110531A30CB
:1034D000B0F33EF490958095709561957F4F8F4F36
:1034E0009F4F1F910895BB274A3031F4992322F44E
:1034F000BDE2909581959F4F0C949C1A592F482FAF
:10350000372F262F660F771F881F991F660F771F8B
:10351000881F991F620F731F841F951F660F771FE7
:10352000881F991F08957AE0979F902D879F802D7F
:10353000910D11240895BB27FB015527AA27880F59
:10354000991FAA1FA41710F0A41B83955051B9F717
:10355000A05DAA3308F0A95DA193009779F7B11196
:10356000B1931192CB010C94F51CA9E0B0E0EBEB08
:10357000FAE10C946C1E6A01F22EB02E102FFBE3C0
:10358000AF2EA01608F41BE31F5F012F27E0AE014A
:103590004F5F5F4F0E94141CBC018981982F997066
:1035A000913009F43FC09BE2E1FC04C09E2D917074
:1035B000E0FC3AC05E2D5071E82FE87083FF46C0F2
:1035C00084E0911101C083E0EF2DE81B8F1508F016
:1035D000E0E0D6018E2F20E2552351F1992329F006
:1035E000D6019C93C60101966C0196012D5F3F4F59
:1035F000E2FE24C08EE4D6018C9391E411969C9354
:10360000119712968C93D9018E2F90E281111BC0D5
:10361000E20FF32FF11D10828EEF9FEF2996ECE061
:103620000C94881E9DE2C6CF90E2C4CF2D938150AA
:103630008111FCCFCE0ED11CE0E0D0CF8EE6D601BA
:103640008C9391E6DBCF9D938150E0CF482F44705F
:1036500082FF3DC084E0911101C083E08F1510F41A
:10366000EF2DE81BD6018E2F20E2552309F1992377
:1036700029F0D6019C93C60101966C0196012D5F3D
:103680003F4FE2FE1BC089E4D6018C938EE4119675
:103690008C93119786E412968C93D9018E2F90E229
:1036A000882309F4B5CF9D938150FACF2D93815093
:1036B0008111FCCFCE0ED11CE0E0D9CF89E6D60136
:1036C0008C938EE611968C93119786E6E4CF9B013E
:1036D00077FF02C030E020E0A1E0B0E0911102C02D
:1036E000B0E0A0E0F9013196AE0FBF1F8B2C912CFA
:1036F000BB2009F461C05401EFEFAE1ABE0AAA0D57
:10370000BB1DFA161B0619F014F04F2D4A1B511160
:1037100088C0E3FC59C07601A42FB0E2A1114FC0CC
:10372000C40ED11C992309F45BC040E0D601119668
:10373000F60190836D01552309F448C0012F060F4F
:103740009A81582F507184FF03C0913309F40150BE
:1037500010160CF047C0093008F008E0EEE2FE2E2B
:103760005B01A01AB10885019194819491082F3FC3
:10377000320729F4D601FC92F60131966F016217E7
:10378000730794F1021713077CF5DB01A21BB30B3F
:10379000AA24A394B12CAC0EBD1EAA0DBB1D11967C
:1037A0008C9121503109D601119628153905F4F074
:1037B000F60180836D01DBCFB12CA12CA0CFF701E6
:1037C000B1937F01A150AACF9111B0CFD601942F10
:1037D00050E302C05D9391509111FCCFC40ED11CF7
:1037E00040E0ACCF01E0BACF80E3DBCF62177307D4
:1037F00031F4963388F4953311F4552369F0F601CA
:103800008083FD01842F90E2811108C0A40FB11DB7
:103810001C9290E080E002CF81E3F1CF9193815040
:10382000F3CF911183CF8ACF283008F027E03327D8
:10383000DA01990F311D87FD9160009661057105D0
:1038400039F432602E5F3D9330E32A95E1F7089515
:103850009F3F30F080387105610509F03C5F3C5FA7
:103860003D93913008F08068911DDF93CF931F93B3
:103870000F93FF92EF92192F987F9695E92F9695C7
:103880009695E90FFF27EE53FF4F99273327EE2434
:10389000FF24A701E70105900894079428F4360F48
:1038A000E71EF81E491F511D660F771F881F991FBD
:1038B0000694A1F70590079428F4E70EF81E491F17
:1038C000561FC11D770F881F991F661F0694A1F709
:1038D0000590079428F4F80E491F561FC71FD11DE5
:1038E000880F991F661F771F0694A1F7059007940C
:1038F00020F4490F561FC71FD81F990F661F771F47
:10390000881F0694A9F784911095177041F0D695F9
:10391000C79557954795F794E7941A95C1F7E8E648
:10392000F0E0689415901591359165919591059009
:103930007FE27395E118F10A430B560BC90BD009CE
:10394000C0F7E10CF11E431F561FC91FD01D7EF4A6
:10395000703311F48A95E6CFE894015030F0080FE7
:103960000AF40027021708F4202F2395022F7A3338
:1039700028F079E37D932A95E9F710C07D932A9585
:1039800089F6069497956795379517951794E118DA
:10399000F10A430B560BC90BD00998F023957E9181
:1039A00073957A3308F070E37C932013B8F77E9117
:1039B00070617D9330F0839571E37D9370E32A9578
:1039C000E1F71124EF90FF900F911F91CF91DF91BC
:1039D000992787FD9095089591110C94D81D8032F8
:1039E00019F089508550C8F70895DC01FC01672F54
:1039F00071917723E1F7329704C07C916D937083C6
:103A00006291AE17BF07C8F308950E94471D08F4DE
:103A100081E00895E89409C097FB3EF49095809565
:103A2000709561957F4F8F4F9F4F9923A9F0F92F84
:103A300096E9BB279395F695879577956795B79502
:103A4000F111F8CFFAF4BB0F11F460FF1BC06F5FE8
:103A50007F4F8F4F9F4F16C0882311F096E911C0FA
:103A6000772321F09EE8872F762F05C0662371F01B
:103A700096E8862F70E060E02AF09A95660F771F2F
:103A8000881FDAF7880F9695879597F90895990F0B
:103A90000008550FAA0BE0E8FEEF16161706E80718
:103AA000F907C0F012161306E407F50798F0621B39
:103AB000730B840B950B39F40A2661F0232B242B0E
:103AC000252B21F408950A2609F4A140A6958FEF2D
:103AD000811D811D08950E947E1D0C94F21D0E947F
:103AE000E41D38F00E94EB1D20F0952311F00C949A
:103AF000DB1D0C94E11D11240C94261E0E94031E54
:103B000070F3959FC1F3950F50E0551F629FF00130
:103B1000729FBB27F00DB11D639FAA27F00DB11D49
:103B2000AA1F649F6627B00DA11D661F829F2227D2
:103B3000B00DA11D621F739FB00DA11D621F839F59
:103B4000A00D611D221F749F3327A00D611D231F2F
:103B5000849F600D211D822F762F6A2F11249F577D
:103B600050409AF0F1F088234AF0EE0FFF1FBB1F80
:103B7000661F771F881F91505040A9F79E3F51053F
:103B800080F00C94DB1D0C94261E5F3FE4F3983EFE
:103B9000D4F3869577956795B795F795E7959F5FE9
:103BA000C1F7FE2B880F911D9695879597F908957B
:103BB00099278827089597F99F6780E870E060E06B
:103BC00008959FEF80EC089500240A9416161706B6
:103BD00018060906089500240A94121613061406FE
:103BE00005060895092E0394000C11F4882352F061
:103BF000BB0F40F4BF2B11F460FF04C06F5F7F4F19
:103C00008F4F9F4F089557FD9058440F551F59F0FF
:103C10005F3F71F04795880F97FB991F61F09F3FB9
:103C200079F087950895121613061406551FF2CFE2
:103C30004695F1DF08C0161617061806991FF1CF32
:103C400086957105610508940895E894BB27662759
:103C50007727CB0197F90895DC01CB01FC01F99995
:103C6000FECF06C0F2BDE1BDF89A319600B40D92C8
:103C700041505040B8F70895F999FECF92BD81BDEB
:103C8000F89A992780B50895DC01A40FB51F41501B
:103C9000504048F0CB01840F951F2E910E94551E75
:103CA00041505040D0F70895262FF999FECF92BD8C
:103CB00081BDF89A019700B4021639F01FBA20BDF1
:103CC0000FB6F894FA9AF99A0FBE08952F923F9280
:103CD0004F925F926F927F928F929F92AF92BF921C
:103CE000CF92DF92EF92FF920F931F93CF93DF93C8
:103CF000CDB7DEB7CA1BDB0B0FB6F894DEBF0FBE25
:103D0000CDBF09942A88398848885F846E847D8471
:103D10008C849B84AA84B984C884DF80EE80FD8073
:103D20000C811B81AA81B981CE0FD11D0FB6F894E9
:103D3000DEBF0FBECDBFED0108955058BB27AA27A7
:103D40000E94B51E0C94F21D0E94E41D38F00E94E2
:103D5000EB1D20F039F49F3F19F426F40C94E11D7B
:103D60000EF4E095E7FB0C94DB1DE92F0E94031E87
:103D700058F3BA17620773078407950720F079F4A0
:103D8000A6F50C94251E0EF4E0950B2EBA2FA02D4F
:103D90000B01B90190010C01CA01A0011124FF27F8
:103DA000591B99F0593F50F4503E68F11A16F040F3
:103DB000A22F232F342F4427585FF3CF46953795F2
:103DC0002795A795F0405395C9F77EF41F16BA0BB7
:103DD000620B730B840BBAF09150A1F0FF0FBB1F65
:103DE000661F771F881FC2F70EC0BA0F621F731FAE
:103DF000841F48F4879577956795B795F7959E3F0B
:103E000008F0B0CF9395880F08F09927EE0F97959B
:103E1000879508950E941E1F0C94F21D0E94EB1DB1
:103E200058F00E94E41D40F029F45F3F29F00C9403
:103E3000DB1D51110C94261E0C94E11D0E94031EE3
:103E400068F39923B1F3552391F3951B550BBB27C9
:103E5000AA2762177307840738F09F5F5F4F220F0E
:103E6000331F441FAA1FA9F335D00E2E3AF0E0E805
:103E700032D091505040E695001CCAF72BD0FE2F4F
:103E800029D0660F771F881FBB1F261737074807E3
:103E9000AB07B0E809F0BB0B802DBF01FF2793589B
:103EA0005F4F3AF09E3F510578F00C94DB1D0C9467
:103EB000261E5F3FE4F3983ED4F386957795679589
:103EC000B795F7959F5FC9F7880F911D96958795D0
:103ED00097F90895E1E0660F771F881FBB1F6217EF
:103EE00073078407BA0720F0621B730B840BBA0BAD
:103EF000EE1F88F7E09508950E94831F6894B11122
:103F00000C94261E08950E940B1E88F09F5798F06F
:103F1000B92F9927B751B0F0E1F0660F771F881FCE
:103F2000991F1AF0BA95C9F714C0B13091F00E94E8
:103F3000251EB1E008950C94251E672F782F882741
:103F4000B85F39F0B93FCCF3869577956795B3950F
:103F5000D9F73EF490958095709561957F4F8F4F7E
:103F60009F4F08950E94471D08F48FEF089597FB17
:103F7000072E16F4009407D077FD09D00E94CB1FBE
:103F800007FC05D03EF4909581959F4F089570955C
:103F900061957F4F0895AA1BBB1B51E107C0AA1F63
:103FA000BB1FA617B70710F0A61BB70B881F991FDA
:103FB0005A95A9F780959095BC01CD010895EE0F13
:103FC000FF1F0590F491E02D0994B0E0A0E0EBEE26
:103FD000FFE10C94681E8C01009751F4CB010E9404
:103FE00009198C01C801CDB7DEB7E0E10C94841E3D
:103FF000FC01E60FF71F9C0122503109E217F3077D
:1040000008F49DC0D901CD91DC911197C617D7074F
:1040100098F0C530D10530F3CE0104978617970785
:1040200008F3C61BD70B2297C193D1936D937C9352
:10403000CF010E94A519D6CF5B01AC1ABD0A4C0175
:104040008C0E9D1EA091AE04B091AF04512C412C5A
:10405000F12CE12C109731F58091AC049091AD04D6
:104060008815990509F05CC04616570608F058C037
:1040700080915C0190915D01009741F48DB79EB7EE
:104080004091600150916101841B950BE817F9077D
:1040900008F055C0F093AD04E093AC04F9017183CE
:1040A0006083A0CF8D919C91119712966C9012977E
:1040B00013967C901397A815B90559F56C0142E049
:1040C000C40ED11CCA14DB0420F1AC014A195B09EF
:1040D000DA011296159780F06282738251834083D1
:1040E000D9016D937C93E114F10471F0D70113961B
:1040F000FC93EE93129776CF22968C0F9D1FF901B9
:1041000091838083F301EFCFF093AF04E093AE048B
:1041100069CF4816590608F42C017D01D3019ACFC6
:10412000CB010E9409197C01009749F0AE01B8014A
:104130000E94A220C8010E94A519870153CF10E058
:1041400000E050CFFB01DC0102C001900D92415014
:104150005040D8F70895FB01DC018D910190801942
:104160000110D9F3990B0895FB01DC0101900D9228
:104170000020E1F70895FB01DC014150504048F078
:1041800001900D920020C9F701C01D92415050408E
:10419000E0F70895AEE0B0E0E0EDF0E20C94761EBA
:1041A00085E08C838B899C899A838983AE01495EE3
:1041B0005F4F6D897E89CE0101960E946E222E96F8
:1041C000E2E00C94921E20FD09C0FC0123FD05C015
:1041D00022FF02C07383628351834083089544FDAC
:1041E00017C046FD1DC0DB01FC01AA0FBB1FEE1F5F
:1041F000FF1F1094D1F76A0F7B1F8E1F9F1F660F42
:10420000771F881F991F620F711D811D911D0895D1
:1042100033E0660F771F881F991F3150D1F7F3CF16
:1042200034E0F7CF0F931F93CF93DF938C01C80136
:104230000E947E23EC0197FD08C00E94EC1C892B94
:10424000B1F7B801CE010E94BA23CE01DF91CF9120
:104250001F910F9108958F929F92AF92BF92EF920C
:10426000FF920F931F93CF93DF938C01D62F7A0188
:10427000B22E0E947E239C0133272B32310529F078
:104280002D323105A9F46894B7F8D15061F480E07B
:10429000DF91CF911F910F91FF90EF90BF90AF9062
:1042A0009F908F900895C8010E947E2397FDEFCFC5
:1042B000CB2DCD7F2B2D2073F9F48033E9F4AA2484
:1042C000AA94AD0E89F0C8010E947E2397FD0CC010
:1042D000282F2F7D283561F4C264D25029F0C801FF
:1042E0000E947E2397FF08C0812C912C54011BC093
:1042F000B6FE2BC0C260DA2D812C912C540120ED2A
:10430000280F283028F1C4FD09C02A3008F1C6FF63
:1043100005C02F7D3FEE320F3630C8F0B8010E9445
:10432000BA23C1FFB4CFC7FF08C0B094A094909443
:104330008094811C911CA11CB11C2C2FB501A401DF
:10434000C7010E94E32081E0A3CFC261D4CF2750F0
:104350004C2FC501B4010E94EF204B015C01C260EB
:10436000D15009F3C8010E947E2397FFC8CFD9CF4F
:10437000A0E2B0E0EEEBF1E20C946B1E5C01962E35
:104380007A01CE0101966C0180E2F60111928A95C4
:10439000E9F7F501B381890130E020E0712C812C2F
:1043A000A0E041E050E0F801B3FD8591B3FF8191B9
:1043B000982F8F01811107C010E000E0C801A0967E
:1043C000EDE00C94871E8E3519F42115310541F16D
:1043D000A21713064CF48D3549F18D3229F4811062
:1043E00006C0882483941DC0882009F464C0E92F86
:1043F000E695E695E695EC0DFD2DF11D892F87706C
:10440000BA0101C0660F8A95EAF78081682B608344
:10441000791651F0971510F49F5FE9CF9150E7CFCF
:10442000A1E02F5F3F4FBFCF812CFBCF882019F039
:104430008E8180628E83AA2359F0F6019E012F5D42
:104440003F4F8081809580833196E217F307C9F74B
:1044500088248394C5010E947E2397FD16C0E82F0F
:10446000E695E695E695EC0DFD2DF11D208130E0F9
:10447000AC014770552702C0359527954A95E2F75C
:1044800020FD06C0B5010E94BA23882069F094CFB0
:10449000E114F10429F0F7018083C70101967C0142
:1044A0009A94812C9110D6CFE114F10409F486CFAF
:1044B000F701108283CFE82FE695E695E695EC0D9F
:1044C000FD2DF11D982F9770BA0101C0660F9A95C6
:1044D000EAF79081692B6083782EA3CFB0E0A0E04B
:1044E000E4E7F2E20C94691E6C01EB015A01FC0155
:1044F00017821682512CF601E380FE01E3FC8591C0
:10450000E3FE8191182FEF018823E9F090E00E94EB
:10451000EC1C892B21F0C6010E941221ECCF153230
:1045200041F4FE01E3FC1591E3FE1191EF01153218
:1045300069F4C6010E947E2397FD8EC01817D9F238
:10454000B6010E94BA23852D90E08AC000E01A329D
:1045500031F4E3FC1591E3FE1191EF0101E0F12C40
:1045600020ED210F2A3048F101FF37C0FF2059F319
:104570001836B1F11C3609F43DC0112321F3612F27
:1045800070E082E691E00E947323892BE1F2912C86
:10459000812C00FD06C0F50180809180C501029646
:1045A0005C011E3679F5F6014681578170E060E0C6
:1045B000202FC4010E94E3209ECF02606F2D70E087
:1045C00090E080E040E20E94EF20F62EFE01E3FC46
:1045D0001591E3FE1191EF01C3CFFF24FA94C8CFE8
:1045E000FE01E3FC1591E3FE1191EF01183609F08D
:1045F000C4CF08600460FE01E3FC1591E3FE119155
:10460000EF01BBCF1336C1F401FD02C0FF24F394C8
:10461000C6010E947E2397FD1FC08114910429F0DA
:10462000F4018083C40101964C01FA94F110F0CF9B
:1046300000FD61CF53945FCF1B35B9F49E01A401F7
:104640006F2DC6010E94B821EC01892B89F7F60174
:104650008381807309F477CF8FEF9FEF511073CF71
:10466000CDB7DEB7EFE00C94851EC6010E94122183
:1046700097FDF2CF1F36A9F130F4143641F0193608
:1046800039F0006405C01337B9F01537D1F700626F
:10469000202FA4016F2DC6010E942B218111C8CFAC
:1046A000D6CF8114910429F0F4016082C4010196EF
:1046B0004C01FA94FF2071F0C6010E947E233C0158
:1046C00097FD08C00E94EC1C892B59F3B601C30169
:1046D0000E94BA238114910409F4AACFF401108234
:1046E000A7CF0061D5CFFC010590061621F0002070
:1046F000D9F7C00108953197CF010895CF93DF9383
:10470000EC012B8120FF1AC026FF0CC02F7B2B83CE
:104710008E819F8101969F838E838A8190E0DF91B5
:10472000CF91089522FF18C0E881F9818081082E79
:10473000000C990B009729F420622B838FEF9FEFD9
:10474000EECF3196F983E8832E813F812F5F3F4F73
:104750003F832E839927E3CFEA85FB85099597FF51
:10476000F3CF2B81019621F080E2822B8B83E6CF61
:1047700080E1FBCFFB01238120FF11C026FD0FC08C
:104780008F3F980771F082832F7D206423832681D9
:1047900037812150310937832683992708958FEF78
:0847A0009FEF0895F894FFCF8C
:1047A80000FCE1A8A8C408DA059B0C1B061A06162B
:1047B800060406FA05C40C3506FF312E31004D6F8C
:1047C80074696F6E205374617469632053656E73E6
:1047D8006F72003000000000000000000030000090
:1047E80000000000000000010001F6285C40FFFF07
:1047F800FFFFFF960BE00AFF840384030000B00468
:104808008000000000001B048503B2036804E30372
:10481800C103D503000000001305E6044205C304E4
:104828002802D304C4040D0A003A00536937303211
:104838003120466F756E64004E6F2044657669635B
:104848006573204465746563746564004854553223
:10485800314420466F756E6400322E332E310025A8
:10486800643A25643A2564004D6F74696F6E20447C
:104878006574656374004C75780048756D69646982
:1048880074790054656D706572617475726500564F
:10489800636300456D7079743A54696D653A426C8A
:0448A800696E6B00CA
:00000001FF
